{
  "contractName": "DIDRegistry",
  "abi": [
    {
      "anonymous": false,
      "inputs": [
        {
          "indexed": true,
          "internalType": "address",
          "name": "user",
          "type": "address"
        },
        {
          "indexed": false,
          "internalType": "string",
          "name": "did",
          "type": "string"
        }
      ],
      "name": "DIDRegistered",
      "type": "event"
    },
    {
      "anonymous": false,
      "inputs": [
        {
          "indexed": true,
          "internalType": "address",
          "name": "user",
          "type": "address"
        },
        {
          "indexed": false,
          "internalType": "uint256",
          "name": "amount",
          "type": "uint256"
        }
      ],
      "name": "FeePaid",
      "type": "event"
    },
    {
      "inputs": [
        {
          "internalType": "address",
          "name": "",
          "type": "address"
        }
      ],
      "name": "didRegistry",
      "outputs": [
        {
          "internalType": "string",
          "name": "did",
          "type": "string"
        },
        {
          "internalType": "address",
          "name": "publicKey",
          "type": "address"
        },
        {
          "internalType": "uint256",
          "name": "balance",
          "type": "uint256"
        }
      ],
      "stateMutability": "view",
      "type": "function",
      "constant": true
    },
    {
      "inputs": [
        {
          "internalType": "string",
          "name": "_did",
          "type": "string"
        }
      ],
      "name": "registerDID",
      "outputs": [],
      "stateMutability": "nonpayable",
      "type": "function"
    },
    {
      "inputs": [],
      "name": "payFee",
      "outputs": [],
      "stateMutability": "payable",
      "type": "function",
      "payable": true
    },
    {
      "inputs": [
        {
          "internalType": "address",
          "name": "_user",
          "type": "address"
        }
      ],
      "name": "getDID",
      "outputs": [
        {
          "internalType": "string",
          "name": "",
          "type": "string"
        },
        {
          "internalType": "address",
          "name": "",
          "type": "address"
        },
        {
          "internalType": "uint256",
          "name": "",
          "type": "uint256"
        }
      ],
      "stateMutability": "view",
      "type": "function",
      "constant": true
    }
  ],
  "bytecode": "0x608060405234801561001057600080fd5b50610c76806100206000396000f3fe60806040526004361061003f5760003560e01c80631775df09146100445780632961025214610083578063570810e21461008d578063f64e30b0146100b6575b600080fd5b34801561005057600080fd5b5061006b60048036038101906100669190610786565b6100f5565b60405161007a9392919061094f565b60405180910390f35b61008b6101c7565b005b34801561009957600080fd5b506100b460048036038101906100af91906107af565b610343565b005b3480156100c257600080fd5b506100dd60048036038101906100d89190610786565b610505565b6040516100ec9392919061094f565b60405180910390f35b600060205280600052604060002060009150905080600001805461011890610b59565b80601f016020809104026020016040519081016040528092919081815260200182805461014490610b59565b80156101915780601f1061016657610100808354040283529160200191610191565b820191906000526020600020905b81548152906001019060200180831161017457829003601f168201915b5050505050908060010160009054906101000a900473ffffffffffffffffffffffffffffffffffffffff16908060020154905083565b60008060003373ffffffffffffffffffffffffffffffffffffffff1673ffffffffffffffffffffffffffffffffffffffff168152602001908152602001600020600001805461021590610b59565b90501415610258576040517f08c379a000000000000000000000000000000000000000000000000000000000815260040161024f9061098d565b60405180910390fd5b6000341161029b576040517f08c379a0000000000000000000000000000000000000000000000000000000008152600401610292906109cd565b60405180910390fd5b346000803373ffffffffffffffffffffffffffffffffffffffff1673ffffffffffffffffffffffffffffffffffffffff16815260200190815260200160002060020160008282546102ec9190610a85565b925050819055503373ffffffffffffffffffffffffffffffffffffffff167f075a2720282fdf622141dae0b048ef90a21a7e57c134c76912d19d006b3b3f6f3460405161033991906109ed565b60405180910390a2565b60008060003373ffffffffffffffffffffffffffffffffffffffff1673ffffffffffffffffffffffffffffffffffffffff168152602001908152602001600020600001805461039190610b59565b9050146103d3576040517f08c379a00000000000000000000000000000000000000000000000000000000081526004016103ca906109ad565b60405180910390fd5b60405180606001604052808281526020013373ffffffffffffffffffffffffffffffffffffffff16815260200160008152506000803373ffffffffffffffffffffffffffffffffffffffff1673ffffffffffffffffffffffffffffffffffffffff168152602001908152602001600020600082015181600001908051906020019061045f929190610666565b5060208201518160010160006101000a81548173ffffffffffffffffffffffffffffffffffffffff021916908373ffffffffffffffffffffffffffffffffffffffff160217905550604082015181600201559050503373ffffffffffffffffffffffffffffffffffffffff167fbfab59a7af78dfc896c3096604749fcee2db2e850297de42de5e6369f54bd3fb826040516104fa919061092d565b60405180910390a250565b606060008060008060008673ffffffffffffffffffffffffffffffffffffffff1673ffffffffffffffffffffffffffffffffffffffff16815260200190815260200160002060405180606001604052908160008201805461056590610b59565b80601f016020809104026020016040519081016040528092919081815260200182805461059190610b59565b80156105de5780601f106105b3576101008083540402835291602001916105de565b820191906000526020600020905b8154815290600101906020018083116105c157829003601f168201915b505050505081526020016001820160009054906101000a900473ffffffffffffffffffffffffffffffffffffffff1673ffffffffffffffffffffffffffffffffffffffff1673ffffffffffffffffffffffffffffffffffffffff1681526020016002820154815250509050806000015181602001518260400151935093509350509193909250565b82805461067290610b59565b90600052602060002090601f01602090048101928261069457600085556106db565b82601f106106ad57805160ff19168380011785556106db565b828001600101855582156106db579182015b828111156106da5782518255916020019190600101906106bf565b5b5090506106e891906106ec565b5090565b5b808211156107055760008160009055506001016106ed565b5090565b600061071c61071784610a39565b610a08565b90508281526020810184848401111561073457600080fd5b61073f848285610b17565b509392505050565b60008135905061075681610c29565b92915050565b600082601f83011261076d57600080fd5b813561077d848260208601610709565b91505092915050565b60006020828403121561079857600080fd5b60006107a684828501610747565b91505092915050565b6000602082840312156107c157600080fd5b600082013567ffffffffffffffff8111156107db57600080fd5b6107e78482850161075c565b91505092915050565b6107f981610adb565b82525050565b600061080a82610a69565b6108148185610a74565b9350610824818560208601610b26565b61082d81610c18565b840191505092915050565b6000610845601283610a74565b91507f444944206e6f74207265676973746572656400000000000000000000000000006000830152602082019050919050565b6000610885601683610a74565b91507f44494420616c72656164792072656769737465726564000000000000000000006000830152602082019050919050565b60006108c5602483610a74565b91507f46656520616d6f756e74206d7573742062652067726561746572207468616e2060008301527f7a65726f000000000000000000000000000000000000000000000000000000006020830152604082019050919050565b61092781610b0d565b82525050565b6000602082019050818103600083015261094781846107ff565b905092915050565b6000606082019050818103600083015261096981866107ff565b905061097860208301856107f0565b610985604083018461091e565b949350505050565b600060208201905081810360008301526109a681610838565b9050919050565b600060208201905081810360008301526109c681610878565b9050919050565b600060208201905081810360008301526109e6816108b8565b9050919050565b6000602082019050610a02600083018461091e565b92915050565b6000604051905081810181811067ffffffffffffffff82111715610a2f57610a2e610be9565b5b8060405250919050565b600067ffffffffffffffff821115610a5457610a53610be9565b5b601f19601f8301169050602081019050919050565b600081519050919050565b600082825260208201905092915050565b6000610a9082610b0d565b9150610a9b83610b0d565b9250827fffffffffffffffffffffffffffffffffffffffffffffffffffffffffffffffff03821115610ad057610acf610b8b565b5b828201905092915050565b6000610ae682610aed565b9050919050565b600073ffffffffffffffffffffffffffffffffffffffff82169050919050565b6000819050919050565b82818337600083830152505050565b60005b83811015610b44578082015181840152602081019050610b29565b83811115610b53576000848401525b50505050565b60006002820490506001821680610b7157607f821691505b60208210811415610b8557610b84610bba565b5b50919050565b7f4e487b7100000000000000000000000000000000000000000000000000000000600052601160045260246000fd5b7f4e487b7100000000000000000000000000000000000000000000000000000000600052602260045260246000fd5b7f4e487b7100000000000000000000000000000000000000000000000000000000600052604160045260246000fd5b6000601f19601f8301169050919050565b610c3281610adb565b8114610c3d57600080fd5b5056fea26469706673582212202eebc1a60d32bd88fd962609ac7cb2d2bea093270279f34b8f5df094ae9df6aa64736f6c63430008000033",
  "immutableReferences": {},
  "source": "// SPDX-License-Identifier: MIT\r\npragma solidity ^0.8.0;\r\n\r\ncontract DIDRegistry {\r\n    struct UserDID {\r\n        string did;\r\n        address publicKey;\r\n        uint256 balance; // Balance of the user after payment\r\n    }\r\n\r\n    mapping(address => UserDID) public didRegistry;\r\n\r\n    event DIDRegistered(address indexed user, string did);\r\n    event FeePaid(address indexed user, uint256 amount);\r\n\r\n    // Register a new DID\r\n    function registerDID(string memory _did) public {\r\n        require(bytes(didRegistry[msg.sender].did).length == 0, \"DID already registered\");\r\n        didRegistry[msg.sender] = UserDID(_did, msg.sender, 0);\r\n        emit DIDRegistered(msg.sender, _did);\r\n    }\r\n\r\n    // Pay fee\r\n    function payFee() public payable {\r\n        require(bytes(didRegistry[msg.sender].did).length != 0, \"DID not registered\");\r\n        require(msg.value > 0, \"Fee amount must be greater than zero\");\r\n\r\n        // Update the user's balance\r\n        didRegistry[msg.sender].balance += msg.value;\r\n        emit FeePaid(msg.sender, msg.value);\r\n    }\r\n\r\n    // Get DID and balance by user address\r\n    function getDID(address _user) public view returns (string memory, address, uint256) {\r\n        UserDID memory user = didRegistry[_user];\r\n        return (user.did, user.publicKey, user.balance);\r\n    }\r\n}\r\n",
  "sourcePath": "C:\\Users\\mmana\\OneDrive\\Desktop\\miniproject\\exam-platform\\contracts\\DIDRegistry.sol",
  "compiler": {
    "name": "solc",
    "version": "0.8.0+commit.c7dfd78e.Emscripten.clang"
  },
  "schemaVersion": "3.4.16",
  "updatedAt": "2024-11-27T08:24:07.896Z",
  "networkType": "ethereum",
  "devdoc": {
    "kind": "dev",
    "methods": {},
    "version": 1
  },
  "userdoc": {
    "kind": "user",
    "methods": {},
    "version": 1
  }
}