{
  "contractName": "ExamContract",
  "abi": [
    {
      "anonymous": false,
      "inputs": [
        {
          "indexed": true,
          "internalType": "address",
          "name": "setter",
          "type": "address"
        },
        {
          "indexed": false,
          "internalType": "string",
          "name": "lighthouseCID",
          "type": "string"
        }
      ],
      "name": "CIDAdded",
      "type": "event"
    },
    {
      "anonymous": false,
      "inputs": [
        {
          "indexed": false,
          "internalType": "string",
          "name": "invalidCID",
          "type": "string"
        }
      ],
      "name": "CIDMarkedInvalid",
      "type": "event"
    },
    {
      "anonymous": false,
      "inputs": [
        {
          "indexed": true,
          "internalType": "address",
          "name": "setter",
          "type": "address"
        },
        {
          "indexed": false,
          "internalType": "string",
          "name": "questionText",
          "type": "string"
        },
        {
          "indexed": false,
          "internalType": "uint8",
          "name": "difficultyLevel",
          "type": "uint8"
        }
      ],
      "name": "QuestionAdded",
      "type": "event"
    },
    {
      "inputs": [
        {
          "internalType": "address",
          "name": "",
          "type": "address"
        },
        {
          "internalType": "uint256",
          "name": "",
          "type": "uint256"
        }
      ],
      "name": "setterQuestions",
      "outputs": [
        {
          "internalType": "string",
          "name": "questionText",
          "type": "string"
        },
        {
          "internalType": "uint8",
          "name": "difficultyLevel",
          "type": "uint8"
        },
        {
          "internalType": "string",
          "name": "optionA",
          "type": "string"
        },
        {
          "internalType": "string",
          "name": "optionB",
          "type": "string"
        },
        {
          "internalType": "string",
          "name": "optionC",
          "type": "string"
        },
        {
          "internalType": "string",
          "name": "optionD",
          "type": "string"
        },
        {
          "internalType": "bytes32",
          "name": "correctOptionHash",
          "type": "bytes32"
        },
        {
          "internalType": "string",
          "name": "lighthouseCID",
          "type": "string"
        }
      ],
      "stateMutability": "view",
      "type": "function",
      "constant": true
    },
    {
      "inputs": [
        {
          "internalType": "uint256",
          "name": "",
          "type": "uint256"
        }
      ],
      "name": "setters",
      "outputs": [
        {
          "internalType": "address",
          "name": "",
          "type": "address"
        }
      ],
      "stateMutability": "view",
      "type": "function",
      "constant": true
    },
    {
      "inputs": [
        {
          "internalType": "string",
          "name": "_questionText",
          "type": "string"
        },
        {
          "internalType": "uint8",
          "name": "_difficultyLevel",
          "type": "uint8"
        },
        {
          "internalType": "string",
          "name": "_optionA",
          "type": "string"
        },
        {
          "internalType": "string",
          "name": "_optionB",
          "type": "string"
        },
        {
          "internalType": "string",
          "name": "_optionC",
          "type": "string"
        },
        {
          "internalType": "string",
          "name": "_optionD",
          "type": "string"
        },
        {
          "internalType": "bytes32",
          "name": "_correctOptionHash",
          "type": "bytes32"
        },
        {
          "internalType": "string",
          "name": "_lighthouseCID",
          "type": "string"
        }
      ],
      "name": "addQuestion",
      "outputs": [],
      "stateMutability": "nonpayable",
      "type": "function"
    },
    {
      "inputs": [
        {
          "internalType": "address",
          "name": "_setter",
          "type": "address"
        }
      ],
      "name": "getAllQuestionsForSetter",
      "outputs": [
        {
          "components": [
            {
              "internalType": "string",
              "name": "questionText",
              "type": "string"
            },
            {
              "internalType": "uint8",
              "name": "difficultyLevel",
              "type": "uint8"
            },
            {
              "internalType": "string",
              "name": "optionA",
              "type": "string"
            },
            {
              "internalType": "string",
              "name": "optionB",
              "type": "string"
            },
            {
              "internalType": "string",
              "name": "optionC",
              "type": "string"
            },
            {
              "internalType": "string",
              "name": "optionD",
              "type": "string"
            },
            {
              "internalType": "bytes32",
              "name": "correctOptionHash",
              "type": "bytes32"
            },
            {
              "internalType": "string",
              "name": "lighthouseCID",
              "type": "string"
            }
          ],
          "internalType": "struct ExamContract.Question[]",
          "name": "",
          "type": "tuple[]"
        }
      ],
      "stateMutability": "view",
      "type": "function",
      "constant": true
    },
    {
      "inputs": [
        {
          "internalType": "address",
          "name": "_setter",
          "type": "address"
        }
      ],
      "name": "getQuestionCount",
      "outputs": [
        {
          "internalType": "uint256",
          "name": "",
          "type": "uint256"
        }
      ],
      "stateMutability": "view",
      "type": "function",
      "constant": true
    },
    {
      "inputs": [
        {
          "internalType": "address",
          "name": "_setter",
          "type": "address"
        },
        {
          "internalType": "uint256",
          "name": "index",
          "type": "uint256"
        }
      ],
      "name": "getQuestionByIndex",
      "outputs": [
        {
          "internalType": "string",
          "name": "questionText",
          "type": "string"
        },
        {
          "internalType": "uint8",
          "name": "difficultyLevel",
          "type": "uint8"
        },
        {
          "internalType": "string",
          "name": "optionA",
          "type": "string"
        },
        {
          "internalType": "string",
          "name": "optionB",
          "type": "string"
        },
        {
          "internalType": "string",
          "name": "optionC",
          "type": "string"
        },
        {
          "internalType": "string",
          "name": "optionD",
          "type": "string"
        },
        {
          "internalType": "bytes32",
          "name": "correctOptionHash",
          "type": "bytes32"
        },
        {
          "internalType": "string",
          "name": "lighthouseCID",
          "type": "string"
        }
      ],
      "stateMutability": "view",
      "type": "function",
      "constant": true
    },
    {
      "inputs": [],
      "name": "getSetters",
      "outputs": [
        {
          "internalType": "address[]",
          "name": "",
          "type": "address[]"
        }
      ],
      "stateMutability": "view",
      "type": "function",
      "constant": true
    },
    {
      "inputs": [
        {
          "internalType": "string",
          "name": "_invalidCID",
          "type": "string"
        }
      ],
      "name": "addInvalidCID",
      "outputs": [],
      "stateMutability": "nonpayable",
      "type": "function"
    },
    {
      "inputs": [],
      "name": "getInvalidCIDs",
      "outputs": [
        {
          "internalType": "string[]",
          "name": "",
          "type": "string[]"
        }
      ],
      "stateMutability": "view",
      "type": "function",
      "constant": true
    },
    {
      "inputs": [
        {
          "internalType": "address",
          "name": "_setter",
          "type": "address"
        },
        {
          "internalType": "uint256",
          "name": "_start",
          "type": "uint256"
        },
        {
          "internalType": "uint256",
          "name": "_count",
          "type": "uint256"
        }
      ],
      "name": "getQuestionsPaginated",
      "outputs": [
        {
          "components": [
            {
              "internalType": "string",
              "name": "questionText",
              "type": "string"
            },
            {
              "internalType": "uint8",
              "name": "difficultyLevel",
              "type": "uint8"
            },
            {
              "internalType": "string",
              "name": "optionA",
              "type": "string"
            },
            {
              "internalType": "string",
              "name": "optionB",
              "type": "string"
            },
            {
              "internalType": "string",
              "name": "optionC",
              "type": "string"
            },
            {
              "internalType": "string",
              "name": "optionD",
              "type": "string"
            },
            {
              "internalType": "bytes32",
              "name": "correctOptionHash",
              "type": "bytes32"
            },
            {
              "internalType": "string",
              "name": "lighthouseCID",
              "type": "string"
            }
          ],
          "internalType": "struct ExamContract.Question[]",
          "name": "",
          "type": "tuple[]"
        }
      ],
      "stateMutability": "view",
      "type": "function",
      "constant": true
    }
  ],
  "bytecode": "0x608060405234801561001057600080fd5b506127b8806100206000396000f3fe608060405234801561001057600080fd5b506004361061009e5760003560e01c806389799b0f1161006657806389799b0f146101625780639c412e261461017e5780639f07b5af146101ae578063b02d536d146101de578063ea4b0d791461020e5761009e565b806302a2709d146100a35780631139364d146100bf57806315521227146100dd578063239c1e9c1461010d578063534e9ffa14610144575b600080fd5b6100bd60048036038101906100b89190611cdd565b610245565b005b6100c76102bb565b6040516100d4919061221a565b60405180910390f35b6100f760048036038101906100f29190611c8e565b610349565b604051610104919061225e565b60405180910390f35b61012760048036038101906101229190611c52565b610912565b60405161013b9897969594939291906122d2565b60405180910390f35b61014c610cb4565b604051610159919061223c565b60405180910390f35b61017c60048036038101906101779190611d1e565b610d8d565b005b61019860048036038101906101939190611e60565b6110c6565b6040516101a591906121ff565b60405180910390f35b6101c860048036038101906101c39190611c29565b611105565b6040516101d5919061239a565b60405180910390f35b6101f860048036038101906101f39190611c29565b611150565b604051610205919061225e565b60405180910390f35b61022860048036038101906102239190611c52565b611581565b60405161023c9897969594939291906122d2565b60405180910390f35b600381908060018154018082558091505060019003906000526020600020016000909190919091509080519060200190610280929190611a7f565b507fccef844a9acd1da49f4e13a1afbc4f77d0615c3e2035d215dd045a51b1678aa1816040516102b09190612280565b60405180910390a150565b6060600280548060200260200160405190810160405280929190818152602001828054801561033f57602002820191906000526020600020905b8160009054906101000a900473ffffffffffffffffffffffffffffffffffffffff1673ffffffffffffffffffffffffffffffffffffffff16815260200190600101908083116102f5575b5050505050905090565b60606000828461035991906124ee565b90506000808673ffffffffffffffffffffffffffffffffffffffff1673ffffffffffffffffffffffffffffffffffffffff168152602001908152602001600020805490508111156103e9576000808673ffffffffffffffffffffffffffffffffffffffff1673ffffffffffffffffffffffffffffffffffffffff1681526020019081526020016000208054905090505b600084826103f79190612544565b67ffffffffffffffff811115610436577f4e487b7100000000000000000000000000000000000000000000000000000000600052604160045260246000fd5b60405190808252806020026020018201604052801561046f57816020015b61045c611b05565b8152602001906001900390816104545790505b50905060008590505b82811015610905576000808873ffffffffffffffffffffffffffffffffffffffff1673ffffffffffffffffffffffffffffffffffffffff16815260200190815260200160002081815481106104f6577f4e487b7100000000000000000000000000000000000000000000000000000000600052603260045260246000fd5b9060005260206000209060080201604051806101000160405290816000820180546105209061260d565b80601f016020809104026020016040519081016040528092919081815260200182805461054c9061260d565b80156105995780601f1061056e57610100808354040283529160200191610599565b820191906000526020600020905b81548152906001019060200180831161057c57829003601f168201915b505050505081526020016001820160009054906101000a900460ff1660ff1660ff1681526020016002820180546105cf9061260d565b80601f01602080910402602001604051908101604052809291908181526020018280546105fb9061260d565b80156106485780601f1061061d57610100808354040283529160200191610648565b820191906000526020600020905b81548152906001019060200180831161062b57829003601f168201915b505050505081526020016003820180546106619061260d565b80601f016020809104026020016040519081016040528092919081815260200182805461068d9061260d565b80156106da5780601f106106af576101008083540402835291602001916106da565b820191906000526020600020905b8154815290600101906020018083116106bd57829003601f168201915b505050505081526020016004820180546106f39061260d565b80601f016020809104026020016040519081016040528092919081815260200182805461071f9061260d565b801561076c5780601f106107415761010080835404028352916020019161076c565b820191906000526020600020905b81548152906001019060200180831161074f57829003601f168201915b505050505081526020016005820180546107859061260d565b80601f01602080910402602001604051908101604052809291908181526020018280546107b19061260d565b80156107fe5780601f106107d3576101008083540402835291602001916107fe565b820191906000526020600020905b8154815290600101906020018083116107e157829003601f168201915b50505050508152602001600682015481526020016007820180546108219061260d565b80601f016020809104026020016040519081016040528092919081815260200182805461084d9061260d565b801561089a5780601f1061086f5761010080835404028352916020019161089a565b820191906000526020600020905b81548152906001019060200180831161087d57829003601f168201915b5050505050815250508287836108b09190612544565b815181106108e7577f4e487b7100000000000000000000000000000000000000000000000000000000600052603260045260246000fd5b602002602001018190525080806108fd9061263f565b915050610478565b5080925050509392505050565b6000602052816000526040600020818154811061092e57600080fd5b9060005260206000209060080201600091509150508060000180546109529061260d565b80601f016020809104026020016040519081016040528092919081815260200182805461097e9061260d565b80156109cb5780601f106109a0576101008083540402835291602001916109cb565b820191906000526020600020905b8154815290600101906020018083116109ae57829003601f168201915b5050505050908060010160009054906101000a900460ff16908060020180546109f39061260d565b80601f0160208091040260200160405190810160405280929190818152602001828054610a1f9061260d565b8015610a6c5780601f10610a4157610100808354040283529160200191610a6c565b820191906000526020600020905b815481529060010190602001808311610a4f57829003601f168201915b505050505090806003018054610a819061260d565b80601f0160208091040260200160405190810160405280929190818152602001828054610aad9061260d565b8015610afa5780601f10610acf57610100808354040283529160200191610afa565b820191906000526020600020905b815481529060010190602001808311610add57829003601f168201915b505050505090806004018054610b0f9061260d565b80601f0160208091040260200160405190810160405280929190818152602001828054610b3b9061260d565b8015610b885780601f10610b5d57610100808354040283529160200191610b88565b820191906000526020600020905b815481529060010190602001808311610b6b57829003601f168201915b505050505090806005018054610b9d9061260d565b80601f0160208091040260200160405190810160405280929190818152602001828054610bc99061260d565b8015610c165780601f10610beb57610100808354040283529160200191610c16565b820191906000526020600020905b815481529060010190602001808311610bf957829003601f168201915b505050505090806006015490806007018054610c319061260d565b80601f0160208091040260200160405190810160405280929190818152602001828054610c5d9061260d565b8015610caa5780601f10610c7f57610100808354040283529160200191610caa565b820191906000526020600020905b815481529060010190602001808311610c8d57829003601f168201915b5050505050905088565b60606003805480602002602001604051908101604052809291908181526020016000905b82821015610d84578382906000526020600020018054610cf79061260d565b80601f0160208091040260200160405190810160405280929190818152602001828054610d239061260d565b8015610d705780601f10610d4557610100808354040283529160200191610d70565b820191906000526020600020905b815481529060010190602001808311610d5357829003601f168201915b505050505081526020019060010190610cd8565b50505050905090565b60006040518061010001604052808a81526020018960ff1681526020018881526020018781526020018681526020018581526020018481526020018381525090506000803373ffffffffffffffffffffffffffffffffffffffff1673ffffffffffffffffffffffffffffffffffffffff1681526020019081526020016000208190806001815401808255809150506001900390600052602060002090600802016000909190919091506000820151816000019080519060200190610e52929190611a7f565b5060208201518160010160006101000a81548160ff021916908360ff1602179055506040820151816002019080519060200190610e90929190611a7f565b506060820151816003019080519060200190610ead929190611a7f565b506080820151816004019080519060200190610eca929190611a7f565b5060a0820151816005019080519060200190610ee7929190611a7f565b5060c0820151816006015560e0820151816007019080519060200190610f0e929190611a7f565b5050503373ffffffffffffffffffffffffffffffffffffffff167f5564aa35b3c57cc305e498d97fa466839179fb6a7c5844511230d293c04177248a8a604051610f599291906122a2565b60405180910390a23373ffffffffffffffffffffffffffffffffffffffff167ffadb2845ac408333d6ae8edb54f95c57bbeaf0c294ab693bfe92c40139dc63f683604051610fa79190612280565b60405180910390a2600160003373ffffffffffffffffffffffffffffffffffffffff1673ffffffffffffffffffffffffffffffffffffffff16815260200190815260200160002060009054906101000a900460ff166110bb576002339080600181540180825580915050600190039060005260206000200160009091909190916101000a81548173ffffffffffffffffffffffffffffffffffffffff021916908373ffffffffffffffffffffffffffffffffffffffff16021790555060018060003373ffffffffffffffffffffffffffffffffffffffff1673ffffffffffffffffffffffffffffffffffffffff16815260200190815260200160002060006101000a81548160ff0219169083151502179055505b505050505050505050565b600281815481106110d657600080fd5b906000526020600020016000915054906101000a900473ffffffffffffffffffffffffffffffffffffffff1681565b60008060008373ffffffffffffffffffffffffffffffffffffffff1673ffffffffffffffffffffffffffffffffffffffff168152602001908152602001600020805490509050919050565b60606000808373ffffffffffffffffffffffffffffffffffffffff1673ffffffffffffffffffffffffffffffffffffffff168152602001908152602001600020805480602002602001604051908101604052809291908181526020016000905b828210156115765783829060005260206000209060080201604051806101000160405290816000820180546111e49061260d565b80601f01602080910402602001604051908101604052809291908181526020018280546112109061260d565b801561125d5780601f106112325761010080835404028352916020019161125d565b820191906000526020600020905b81548152906001019060200180831161124057829003601f168201915b505050505081526020016001820160009054906101000a900460ff1660ff1660ff1681526020016002820180546112939061260d565b80601f01602080910402602001604051908101604052809291908181526020018280546112bf9061260d565b801561130c5780601f106112e15761010080835404028352916020019161130c565b820191906000526020600020905b8154815290600101906020018083116112ef57829003601f168201915b505050505081526020016003820180546113259061260d565b80601f01602080910402602001604051908101604052809291908181526020018280546113519061260d565b801561139e5780601f106113735761010080835404028352916020019161139e565b820191906000526020600020905b81548152906001019060200180831161138157829003601f168201915b505050505081526020016004820180546113b79061260d565b80601f01602080910402602001604051908101604052809291908181526020018280546113e39061260d565b80156114305780601f1061140557610100808354040283529160200191611430565b820191906000526020600020905b81548152906001019060200180831161141357829003601f168201915b505050505081526020016005820180546114499061260d565b80601f01602080910402602001604051908101604052809291908181526020018280546114759061260d565b80156114c25780601f10611497576101008083540402835291602001916114c2565b820191906000526020600020905b8154815290600101906020018083116114a557829003601f168201915b50505050508152602001600682015481526020016007820180546114e59061260d565b80601f01602080910402602001604051908101604052809291908181526020018280546115119061260d565b801561155e5780601f106115335761010080835404028352916020019161155e565b820191906000526020600020905b81548152906001019060200180831161154157829003601f168201915b505050505081525050815260200190600101906111b0565b505050509050919050565b60606000606080606080600060606000808b73ffffffffffffffffffffffffffffffffffffffff1673ffffffffffffffffffffffffffffffffffffffff168152602001908152602001600020805490508910611612576040517f08c379a00000000000000000000000000000000000000000000000000000000081526004016116099061237a565b60405180910390fd5b60008060008c73ffffffffffffffffffffffffffffffffffffffff1673ffffffffffffffffffffffffffffffffffffffff1681526020019081526020016000208a8154811061168a577f4e487b7100000000000000000000000000000000000000000000000000000000600052603260045260246000fd5b9060005260206000209060080201604051806101000160405290816000820180546116b49061260d565b80601f01602080910402602001604051908101604052809291908181526020018280546116e09061260d565b801561172d5780601f106117025761010080835404028352916020019161172d565b820191906000526020600020905b81548152906001019060200180831161171057829003601f168201915b505050505081526020016001820160009054906101000a900460ff1660ff1660ff1681526020016002820180546117639061260d565b80601f016020809104026020016040519081016040528092919081815260200182805461178f9061260d565b80156117dc5780601f106117b1576101008083540402835291602001916117dc565b820191906000526020600020905b8154815290600101906020018083116117bf57829003601f168201915b505050505081526020016003820180546117f59061260d565b80601f01602080910402602001604051908101604052809291908181526020018280546118219061260d565b801561186e5780601f106118435761010080835404028352916020019161186e565b820191906000526020600020905b81548152906001019060200180831161185157829003601f168201915b505050505081526020016004820180546118879061260d565b80601f01602080910402602001604051908101604052809291908181526020018280546118b39061260d565b80156119005780601f106118d557610100808354040283529160200191611900565b820191906000526020600020905b8154815290600101906020018083116118e357829003601f168201915b505050505081526020016005820180546119199061260d565b80601f01602080910402602001604051908101604052809291908181526020018280546119459061260d565b80156119925780601f1061196757610100808354040283529160200191611992565b820191906000526020600020905b81548152906001019060200180831161197557829003601f168201915b50505050508152602001600682015481526020016007820180546119b59061260d565b80601f01602080910402602001604051908101604052809291908181526020018280546119e19061260d565b8015611a2e5780601f10611a0357610100808354040283529160200191611a2e565b820191906000526020600020905b815481529060010190602001808311611a1157829003601f168201915b5050505050815250509050806000015181602001518260400151836060015184608001518560a001518660c001518760e0015198509850985098509850985098509850509295985092959890939650565b828054611a8b9061260d565b90600052602060002090601f016020900481019282611aad5760008555611af4565b82601f10611ac657805160ff1916838001178555611af4565b82800160010185558215611af4579182015b82811115611af3578251825591602001919060010190611ad8565b5b509050611b019190611b50565b5090565b60405180610100016040528060608152602001600060ff1681526020016060815260200160608152602001606081526020016060815260200160008019168152602001606081525090565b5b80821115611b69576000816000905550600101611b51565b5090565b6000611b80611b7b846123e6565b6123b5565b905082815260208101848484011115611b9857600080fd5b611ba38482856125cb565b509392505050565b600081359050611bba81612726565b92915050565b600081359050611bcf8161273d565b92915050565b600082601f830112611be657600080fd5b8135611bf6848260208601611b6d565b91505092915050565b600081359050611c0e81612754565b92915050565b600081359050611c238161276b565b92915050565b600060208284031215611c3b57600080fd5b6000611c4984828501611bab565b91505092915050565b60008060408385031215611c6557600080fd5b6000611c7385828601611bab565b9250506020611c8485828601611bff565b9150509250929050565b600080600060608486031215611ca357600080fd5b6000611cb186828701611bab565b9350506020611cc286828701611bff565b9250506040611cd386828701611bff565b9150509250925092565b600060208284031215611cef57600080fd5b600082013567ffffffffffffffff811115611d0957600080fd5b611d1584828501611bd5565b91505092915050565b600080600080600080600080610100898b031215611d3b57600080fd5b600089013567ffffffffffffffff811115611d5557600080fd5b611d618b828c01611bd5565b9850506020611d728b828c01611c14565b975050604089013567ffffffffffffffff811115611d8f57600080fd5b611d9b8b828c01611bd5565b965050606089013567ffffffffffffffff811115611db857600080fd5b611dc48b828c01611bd5565b955050608089013567ffffffffffffffff811115611de157600080fd5b611ded8b828c01611bd5565b94505060a089013567ffffffffffffffff811115611e0a57600080fd5b611e168b828c01611bd5565b93505060c0611e278b828c01611bc0565b92505060e089013567ffffffffffffffff811115611e4457600080fd5b611e508b828c01611bd5565b9150509295985092959890939650565b600060208284031215611e7257600080fd5b6000611e8084828501611bff565b91505092915050565b6000611e958383611ec9565b60208301905092915050565b6000611ead838361204d565b905092915050565b6000611ec183836120ff565b905092915050565b611ed281612578565b82525050565b611ee181612578565b82525050565b6000611ef282612446565b611efc8185612499565b9350611f0783612416565b8060005b83811015611f38578151611f1f8882611e89565b9750611f2a83612472565b925050600181019050611f0b565b5085935050505092915050565b6000611f5082612451565b611f5a81856124aa565b935083602082028501611f6c85612426565b8060005b85811015611fa85784840389528151611f898582611ea1565b9450611f948361247f565b925060208a01995050600181019050611f70565b50829750879550505050505092915050565b6000611fc58261245c565b611fcf81856124bb565b935083602082028501611fe185612436565b8060005b8581101561201d5784840389528151611ffe8582611eb5565b94506120098361248c565b925060208a01995050600181019050611fe5565b50829750879550505050505092915050565b6120388161258a565b82525050565b6120478161258a565b82525050565b600061205882612467565b61206281856124cc565b93506120728185602086016125da565b61207b81612715565b840191505092915050565b600061209182612467565b61209b81856124dd565b93506120ab8185602086016125da565b6120b481612715565b840191505092915050565b60006120cc6013836124dd565b91507f496e646578206f7574206f6620626f756e6473000000000000000000000000006000830152602082019050919050565b600061010083016000830151848203600086015261211d828261204d565b915050602083015161213260208601826121e1565b506040830151848203604086015261214a828261204d565b91505060608301518482036060860152612164828261204d565b9150506080830151848203608086015261217e828261204d565b91505060a083015184820360a0860152612198828261204d565b91505060c08301516121ad60c086018261202f565b5060e083015184820360e08601526121c5828261204d565b9150508091505092915050565b6121db816125b4565b82525050565b6121ea816125be565b82525050565b6121f9816125be565b82525050565b60006020820190506122146000830184611ed8565b92915050565b600060208201905081810360008301526122348184611ee7565b905092915050565b600060208201905081810360008301526122568184611f45565b905092915050565b600060208201905081810360008301526122788184611fba565b905092915050565b6000602082019050818103600083015261229a8184612086565b905092915050565b600060408201905081810360008301526122bc8185612086565b90506122cb60208301846121f0565b9392505050565b60006101008201905081810360008301526122ed818b612086565b90506122fc602083018a6121f0565b818103604083015261230e8189612086565b905081810360608301526123228188612086565b905081810360808301526123368187612086565b905081810360a083015261234a8186612086565b905061235960c083018561203e565b81810360e083015261236b8184612086565b90509998505050505050505050565b60006020820190508181036000830152612393816120bf565b9050919050565b60006020820190506123af60008301846121d2565b92915050565b6000604051905081810181811067ffffffffffffffff821117156123dc576123db6126e6565b5b8060405250919050565b600067ffffffffffffffff821115612401576124006126e6565b5b601f19601f8301169050602081019050919050565b6000819050602082019050919050565b6000819050602082019050919050565b6000819050602082019050919050565b600081519050919050565b600081519050919050565b600081519050919050565b600081519050919050565b6000602082019050919050565b6000602082019050919050565b6000602082019050919050565b600082825260208201905092915050565b600082825260208201905092915050565b600082825260208201905092915050565b600082825260208201905092915050565b600082825260208201905092915050565b60006124f9826125b4565b9150612504836125b4565b9250827fffffffffffffffffffffffffffffffffffffffffffffffffffffffffffffffff0382111561253957612538612688565b5b828201905092915050565b600061254f826125b4565b915061255a836125b4565b92508282101561256d5761256c612688565b5b828203905092915050565b600061258382612594565b9050919050565b6000819050919050565b600073ffffffffffffffffffffffffffffffffffffffff82169050919050565b6000819050919050565b600060ff82169050919050565b82818337600083830152505050565b60005b838110156125f85780820151818401526020810190506125dd565b83811115612607576000848401525b50505050565b6000600282049050600182168061262557607f821691505b60208210811415612639576126386126b7565b5b50919050565b600061264a826125b4565b91507fffffffffffffffffffffffffffffffffffffffffffffffffffffffffffffffff82141561267d5761267c612688565b5b600182019050919050565b7f4e487b7100000000000000000000000000000000000000000000000000000000600052601160045260246000fd5b7f4e487b7100000000000000000000000000000000000000000000000000000000600052602260045260246000fd5b7f4e487b7100000000000000000000000000000000000000000000000000000000600052604160045260246000fd5b6000601f19601f8301169050919050565b61272f81612578565b811461273a57600080fd5b50565b6127468161258a565b811461275157600080fd5b50565b61275d816125b4565b811461276857600080fd5b50565b612774816125be565b811461277f57600080fd5b5056fea2646970667358221220b3e3632106c988dedc985bfc970feac2520657f576c9670c5dcfbda2dd4a068b64736f6c63430008000033",
  "immutableReferences": {},
  "source": "// SPDX-License-Identifier: MIT\r\npragma solidity ^0.8.0;\r\n\r\ncontract ExamContract {\r\n    struct Question {\r\n        string questionText;\r\n        uint8 difficultyLevel; // 1 = Easy, 2 = Medium, 3 = Hard\r\n        string optionA;\r\n        string optionB;\r\n        string optionC;\r\n        string optionD;\r\n        bytes32 correctOptionHash;\r\n        string lighthouseCID;  // CID field directly within the Question struct\r\n    }\r\n\r\n    mapping(address => Question[]) public setterQuestions;\r\n    mapping(address => bool) private isSetterMap;\r\n    address[] public setters;\r\n     string[] private invalidCIDs;\r\n\r\n    event QuestionAdded(address indexed setter, string questionText, uint8 difficultyLevel);\r\n    event CIDAdded(address indexed setter, string lighthouseCID);\r\n    event CIDMarkedInvalid(string invalidCID);\r\n\r\n    // Function to add a question with associated Lighthouse CID\r\n    function addQuestion(\r\n        string memory _questionText,\r\n        uint8 _difficultyLevel,\r\n        string memory _optionA,\r\n        string memory _optionB,\r\n        string memory _optionC,\r\n        string memory _optionD,\r\n        bytes32 _correctOptionHash,\r\n        string memory _lighthouseCID\r\n    ) public {\r\n        Question memory newQuestion = Question({\r\n            questionText: _questionText,\r\n            difficultyLevel: _difficultyLevel,\r\n            optionA: _optionA,\r\n            optionB: _optionB,\r\n            optionC: _optionC,\r\n            optionD: _optionD,\r\n            correctOptionHash: _correctOptionHash,\r\n            lighthouseCID: _lighthouseCID  // Assign CID directly within the struct\r\n        });\r\n\r\n        setterQuestions[msg.sender].push(newQuestion);\r\n\r\n        emit QuestionAdded(msg.sender, _questionText, _difficultyLevel);\r\n        emit CIDAdded(msg.sender, _lighthouseCID);\r\n\r\n        if (!isSetterMap[msg.sender]) {\r\n            setters.push(msg.sender);\r\n            isSetterMap[msg.sender] = true;\r\n        }\r\n    }\r\n\r\n    // Function to get all questions for a setter\r\n    function getAllQuestionsForSetter(address _setter) public view returns (Question[] memory) {\r\n        return setterQuestions[_setter];\r\n    }\r\n\r\n    // Function to get the count of questions for a setter\r\nfunction getQuestionCount(address _setter) public view returns (uint256) {\r\n    return setterQuestions[_setter].length;\r\n}\r\n\r\n   function getQuestionByIndex(address _setter, uint256 index) public view returns (\r\n    string memory questionText,\r\n    uint8 difficultyLevel,\r\n    string memory optionA,\r\n    string memory optionB,\r\n    string memory optionC,\r\n    string memory optionD,\r\n    bytes32 correctOptionHash,\r\n    string memory lighthouseCID\r\n) {\r\n    require(index < setterQuestions[_setter].length, \"Index out of bounds\");\r\n    Question memory question = setterQuestions[_setter][index];\r\n    return (\r\n        question.questionText,\r\n        question.difficultyLevel,\r\n        question.optionA,\r\n        question.optionB,\r\n        question.optionC,\r\n        question.optionD,\r\n        question.correctOptionHash,\r\n        question.lighthouseCID\r\n    );\r\n}\r\n\r\n    // Function to get list of all setters\r\n    function getSetters() public view returns (address[] memory) {\r\n        return setters;\r\n    }\r\n\r\n     // Function to add an invalid CID\r\n    function addInvalidCID(string memory _invalidCID) public {\r\n        invalidCIDs.push(_invalidCID);\r\n        emit CIDMarkedInvalid(_invalidCID);\r\n    }\r\n\r\n    // Function to get all invalid CIDs\r\n    function getInvalidCIDs() public view returns (string[] memory) {\r\n        return invalidCIDs;\r\n    }\r\n\r\n    \r\n    // Optional: Paginated retrieval of questions for a setter\r\n    function getQuestionsPaginated(address _setter, uint256 _start, uint256 _count) public view returns (Question[] memory) {\r\n        uint256 end = _start + _count;\r\n        if (end > setterQuestions[_setter].length) {\r\n            end = setterQuestions[_setter].length;\r\n        }\r\n        Question[] memory questionsSubset = new Question[](end - _start);\r\n        for (uint256 i = _start; i < end; i++) {\r\n            questionsSubset[i - _start] = setterQuestions[_setter][i];\r\n        }\r\n        return questionsSubset;\r\n    }\r\n\r\n}\r\n",
  "sourcePath": "C:\\Users\\mmana\\OneDrive\\Desktop\\miniproject\\exam-platform\\contracts\\ExanContract.sol",
  "compiler": {
    "name": "solc",
    "version": "0.8.0+commit.c7dfd78e.Emscripten.clang"
  },
  "schemaVersion": "3.4.16",
  "updatedAt": "2024-11-27T08:24:07.906Z",
  "networkType": "ethereum",
  "devdoc": {
    "kind": "dev",
    "methods": {},
    "version": 1
  },
  "userdoc": {
    "kind": "user",
    "methods": {},
    "version": 1
  }
}